:040000006F00A014D9
:10000400B756004083D7464193F70708E5DF42051A
:1000140041812398A6408280B756004083D7464149
:10002400918BEDDF83D70640C207C18393E7072096
:100034002390F6408280B756004083D78641898B4F
:10004400EDFF83D70640C207C18393E707102390CF
:10005400F640B756004083D74641858BEDDF9307C2
:100064008007370782002398F640375600400D0773
:100074008357464183568641C207C206C182D58F43
:10008400F98FE397E7FE8280B7170240984F41113A
:1000940006C622C426C21367170198CFD84FB706E5
:1000A4002000558FD8CFB71601409C427D773D077D
:1000B400F98F0567130707DDD98F9CC237570040B6
:1000C40091472312F740E177A907231EF74085479C
:1000D4002310F7408D370145253701449304801DD3
:1000E400B387840003C507000504193FC547E31916
:1000F400F4FE1D371304C01E8144353F0145093702
:1001040013E5040BF53D0145E53D4145D53D293752
:100114001D3713050004ED35930704080345040057
:100124003EC00504F13D8247E31AF4FEF53585042B
:1001340093F4F40FA147E392F4FCB24022449244B6
:100144000145410182809307C008970100209381F3
:10015400216B1381010013058008731005308D4550
:100164007390458017050000130585E94D8D7310C4
:10017400553073901734B7070020B70600209387D3
:1001840007001307C05E9386060063EAD702B70729
:10019400002037070020938707001307070063E652
:1001A400E702B71702404147D8C3954637F700E046
:1001B40014C3984F1367470398CF7300203010433C
:1001C4001107910723AEC7FEC9B7910723AE07FEF7
:1001D400F9B70000A83F8D14200021007F22003FC2
:1001E400DA12A1C8AF000000000000000000000007
:1001F40000000000000000000000000000000000FB
:1002040000000000000000000000000000000000EA
:1002140000000000000000000000000000000000DA
:1002240000000000000000000000000000000000CA
:1002340000000000000000000000000000000000BA
:1002440000000000000000000000000000000000AA
:10025400000000000000000000000000000000009A
:10026400000000000000000000000000000000008A
:10027400000000000000000000000000000000007A
:10028400000000000000000000000000000000006A
:10029400000000000000000000000000000000005A
:1002A400000000000000000000000000F0F000006A
:1002B400000000000000F0F000000000F0F030301A
:1002C40030303070E0C0000000000000000000008A
:1002D400000000000000000000000000000000001A
:1002E400000000000000000000000000000000F812
:1002F400FEFE67636363677E7C200000FFFF0603E6
:10030400030303FFFEFE070303030FFFFC000000CB
:10031400F8FEFE07030303030FFEFC000000FFFFCB
:100324000E030303030FFEFC00000000FFFF181878
:10033400181818181818FFFF00000000FFFF3030CD
:10034400303030381F0F00000000000000000000B3
:100354000000000000000000000000000000000099
:100364000000000000000000000000000000000188
:1003740003070E0C0C0C0C0C0C0000000F0F0000FB
:100384000000000F0F0F00000000000F0F0000001E
:100394000103070E0C0C0C0C0F07030000000F0FD9
:1003A4000000000000000F0F000000000F0F00000D
:1003B4000000000000000F0F000000000F0F0000FD
:1003C4000000000000000000000000000000000029
:1003D4000000000000000000000000000000000019
:1003E4000000000000000000000000000000000009
:1003F400F84848F8B080E02020E08080E02020E049
:100404008020F8202000E80000E02020E0C080E008
:100414002020E0E0000000000000000000000000D8
:1004240000000000000000000000000000000000C8
:1004340000000000000000000000000000000000B8
:1004440000000000000000000000000000000000A8
:100454000000000000000000000000000000000098
:100464000000000000000000000000000000000088
:100474000704040603010704040701010704040731
:100484000100070404000700000700000707012714
:1004940024243F0F000400000400000400000000B6
:1004A4000000000000000000000000000000000048
:1004B4000000000000000000000000000000000038
:1004C4000000000000000000000000000000000028
:1004D4000000000000000000000000000000000018
:1004E4000000000000000000000000000000000008
:1004F40000000000000000000000000000000000F8
:1005040000000000000000000000000000000000E7
:1005140000000000000000000000000000000000D7
:1005240000000000000000000000000000000000C7
:1005340000000000000000000000000000000000B7
:1005440000000000000000000000000000000000A7
:100554000000000000000000000000000000000097
:100564000000000000000000000000000000000087
:100574000000000000000000000000000000000077
:100584000000000000000000000000000000000067
:100594000000000000000000000000000000000057
:1005A4000000000000000000000000000000000047
:1005B4000000000000000000000000000000000037
:1005C4000000000000000000000000000000000027
:1005D4000000000000000000000000000000000017
:0805E40000000000000000000F
:00000001FF
